{
  "contractName": "Recorder",
  "abi": [
    {
      "anonymous": false,
      "inputs": [
        {
          "indexed": false,
          "internalType": "bool",
          "name": "flag",
          "type": "bool"
        }
      ],
      "name": "success",
      "type": "event"
    },
    {
      "inputs": [
        {
          "internalType": "address",
          "name": "TokenAddress",
          "type": "address"
        },
        {
          "internalType": "string",
          "name": "date",
          "type": "string"
        },
        {
          "internalType": "string",
          "name": "hash",
          "type": "string"
        },
        {
          "internalType": "uint256",
          "name": "id",
          "type": "uint256"
        },
        {
          "internalType": "address",
          "name": "key",
          "type": "address"
        }
      ],
      "name": "RecordTransaction",
      "outputs": [],
      "stateMutability": "payable",
      "type": "function",
      "payable": true
    },
    {
      "inputs": [
        {
          "internalType": "address",
          "name": "add",
          "type": "address"
        }
      ],
      "name": "TransactionsByUser",
      "outputs": [
        {
          "internalType": "uint256",
          "name": "",
          "type": "uint256"
        }
      ],
      "stateMutability": "view",
      "type": "function",
      "constant": true
    },
    {
      "inputs": [
        {
          "internalType": "string",
          "name": "date",
          "type": "string"
        }
      ],
      "name": "TransactionsByDate",
      "outputs": [
        {
          "internalType": "uint256",
          "name": "",
          "type": "uint256"
        }
      ],
      "stateMutability": "view",
      "type": "function",
      "constant": true
    },
    {
      "inputs": [
        {
          "internalType": "address",
          "name": "add",
          "type": "address"
        },
        {
          "internalType": "string",
          "name": "date",
          "type": "string"
        },
        {
          "internalType": "uint256",
          "name": "id",
          "type": "uint256"
        }
      ],
      "name": "GetTransaction",
      "outputs": [
        {
          "internalType": "string",
          "name": "",
          "type": "string"
        }
      ],
      "stateMutability": "view",
      "type": "function",
      "constant": true
    }
  ],
  "bytecode": "0x608060405234801561001057600080fd5b506111d5806100206000396000f3fe60806040526004361061003f5760003560e01c80634212bfd3146100445780635a78b9f114610081578063f54303d0146100be578063ffa8b1ef146100fb575b600080fd5b34801561005057600080fd5b5061006b60048036038101906100669190610932565b610117565b6040516100789190610978565b60405180910390f35b34801561008d57600080fd5b506100a860048036038101906100a39190610ad9565b6101f2565b6040516100b59190610978565b60405180910390f35b3480156100ca57600080fd5b506100e560048036038101906100e09190610b4e565b6102ac565b6040516100f29190610c45565b60405180910390f35b61011560048036038101906101109190610c67565b610558565b005b6000806000905060005b6000805490508110156101e8578360405160200161013f9190610d29565b604051602081830303815290604052805190602001206000828154811061016957610168610d44565b5b906000526020600020906004020160010160009054906101000a900473ffffffffffffffffffffffffffffffffffffffff166040516020016101ab9190610d29565b60405160208183030381529060405280519060200120036101d55781806101d190610da2565b9250505b80806101e090610da2565b915050610121565b5080915050919050565b6000806000905060005b6000805490508110156102a2578360405160200161021a9190610c45565b604051602081830303815290604052805190602001206000828154811061024457610243610d44565b5b90600052602060002090600402016000016040516020016102659190610edf565b604051602081830303815290604052805190602001200361028f57818061028b90610da2565b9250505b808061029a90610da2565b9150506101fc565b5080915050919050565b606060005b60008054905081101561051757826040516020016102cf9190610978565b60405160208183030381529060405280519060200120600082815481106102f9576102f8610d44565b5b90600052602060002090600402016002015460405160200161031b9190610978565b604051602081830303815290604052805190602001201480156103ce57508460405160200161034a9190610d29565b604051602081830303815290604052805190602001206000828154811061037457610373610d44565b5b906000526020600020906004020160010160009054906101000a900473ffffffffffffffffffffffffffffffffffffffff166040516020016103b69190610d29565b60405160208183030381529060405280519060200120145b80156104495750836040516020016103e69190610c45565b60405160208183030381529060405280519060200120600082815481106104105761040f610d44565b5b90600052602060002090600402016000016040516020016104319190610edf565b60405160208183030381529060405280519060200120145b15610504576000818154811061046257610461610d44565b5b9060005260206000209060040201600301805461047e90610e19565b80601f01602080910402602001604051908101604052809291908181526020018280546104aa90610e19565b80156104f75780601f106104cc576101008083540402835291602001916104f7565b820191906000526020600020905b8154815290600101906020018083116104da57829003601f168201915b5050505050915050610551565b808061050f90610da2565b9150506102b1565b506040518060400160405280601581526020017f6e6f207472616e73616374696f6e20666f756e6421000000000000000000000081525090505b9392505050565b60008573ffffffffffffffffffffffffffffffffffffffff166370a08231336040518263ffffffff1660e01b81526004016105939190610d29565b602060405180830381865afa1580156105b0573d6000803e3d6000fd5b505050506040513d601f19601f820116820180604052508101906105d49190610f16565b9050600a81101561061a576040517f08c379a000000000000000000000000000000000000000000000000000000000815260040161061190611001565b60405180910390fd5b60008673ffffffffffffffffffffffffffffffffffffffff166323b872dd3330678ac7230489e800006040518463ffffffff1660e01b815260040161066193929190611021565b6020604051808303816000875af1158015610680573d6000803e3d6000fd5b505050506040513d601f19601f820116820180604052508101906106a49190611090565b905060011515811515146106ed576040517f08c379a00000000000000000000000000000000000000000000000000000000081526004016106e490611155565b60405180910390fd5b600060405180608001604052808881526020018573ffffffffffffffffffffffffffffffffffffffff168152602001868152602001878152509080600181540180825580915050600190039060005260206000209060040201600090919091909150600082015181600001908051906020019061076b92919061081d565b5060208201518160010160006101000a81548173ffffffffffffffffffffffffffffffffffffffff021916908373ffffffffffffffffffffffffffffffffffffffff1602179055506040820151816002015560608201518160030190805190602001906107d992919061081d565b5050507f4126a1e3fb9045b77e75a469c146b17cd38e0e208a59d5af881696be95b3a624600160405161080c9190611184565b60405180910390a150505050505050565b82805461082990610e19565b90600052602060002090601f01602090048101928261084b5760008555610892565b82601f1061086457805160ff1916838001178555610892565b82800160010185558215610892579182015b82811115610891578251825591602001919060010190610876565b5b50905061089f91906108a3565b5090565b5b808211156108bc5760008160009055506001016108a4565b5090565b6000604051905090565b600080fd5b600080fd5b600073ffffffffffffffffffffffffffffffffffffffff82169050919050565b60006108ff826108d4565b9050919050565b61090f816108f4565b811461091a57600080fd5b50565b60008135905061092c81610906565b92915050565b600060208284031215610948576109476108ca565b5b60006109568482850161091d565b91505092915050565b6000819050919050565b6109728161095f565b82525050565b600060208201905061098d6000830184610969565b92915050565b600080fd5b600080fd5b6000601f19601f8301169050919050565b7f4e487b7100000000000000000000000000000000000000000000000000000000600052604160045260246000fd5b6109e68261099d565b810181811067ffffffffffffffff82111715610a0557610a046109ae565b5b80604052505050565b6000610a186108c0565b9050610a2482826109dd565b919050565b600067ffffffffffffffff821115610a4457610a436109ae565b5b610a4d8261099d565b9050602081019050919050565b82818337600083830152505050565b6000610a7c610a7784610a29565b610a0e565b905082815260208101848484011115610a9857610a97610998565b5b610aa3848285610a5a565b509392505050565b600082601f830112610ac057610abf610993565b5b8135610ad0848260208601610a69565b91505092915050565b600060208284031215610aef57610aee6108ca565b5b600082013567ffffffffffffffff811115610b0d57610b0c6108cf565b5b610b1984828501610aab565b91505092915050565b610b2b8161095f565b8114610b3657600080fd5b50565b600081359050610b4881610b22565b92915050565b600080600060608486031215610b6757610b666108ca565b5b6000610b758682870161091d565b935050602084013567ffffffffffffffff811115610b9657610b956108cf565b5b610ba286828701610aab565b9250506040610bb386828701610b39565b9150509250925092565b600081519050919050565b600082825260208201905092915050565b60005b83811015610bf7578082015181840152602081019050610bdc565b83811115610c06576000848401525b50505050565b6000610c1782610bbd565b610c218185610bc8565b9350610c31818560208601610bd9565b610c3a8161099d565b840191505092915050565b60006020820190508181036000830152610c5f8184610c0c565b905092915050565b600080600080600060a08688031215610c8357610c826108ca565b5b6000610c918882890161091d565b955050602086013567ffffffffffffffff811115610cb257610cb16108cf565b5b610cbe88828901610aab565b945050604086013567ffffffffffffffff811115610cdf57610cde6108cf565b5b610ceb88828901610aab565b9350506060610cfc88828901610b39565b9250506080610d0d8882890161091d565b9150509295509295909350565b610d23816108f4565b82525050565b6000602082019050610d3e6000830184610d1a565b92915050565b7f4e487b7100000000000000000000000000000000000000000000000000000000600052603260045260246000fd5b7f4e487b7100000000000000000000000000000000000000000000000000000000600052601160045260246000fd5b6000610dad8261095f565b91507fffffffffffffffffffffffffffffffffffffffffffffffffffffffffffffffff8203610ddf57610dde610d73565b5b600182019050919050565b7f4e487b7100000000000000000000000000000000000000000000000000000000600052602260045260246000fd5b60006002820490506001821680610e3157607f821691505b602082108103610e4457610e43610dea565b5b50919050565b60008190508160005260206000209050919050565b60008154610e6c81610e19565b610e768186610bc8565b94506001821660008114610e915760018114610ea357610ed6565b60ff1983168652602086019350610ed6565b610eac85610e4a565b60005b83811015610ece57815481890152600182019150602081019050610eaf565b808801955050505b50505092915050565b60006020820190508181036000830152610ef98184610e5f565b905092915050565b600081519050610f1081610b22565b92915050565b600060208284031215610f2c57610f2b6108ca565b5b6000610f3a84828501610f01565b91505092915050565b7f496e73756666696369656e742062616c616e63652120796f75722077616c6c6560008201527f742073686f756c6420686176652061206d696e696d756d2062616c616e63652060208201527f656f662031302054525820746f20657865637574652074686973207472616e7360408201527f616374696f6e0000000000000000000000000000000000000000000000000000606082015250565b6000610feb606683610bc8565b9150610ff682610f43565b608082019050919050565b6000602082019050818103600083015261101a81610fde565b9050919050565b60006060820190506110366000830186610d1a565b6110436020830185610d1a565b6110506040830184610969565b949350505050565b60008115159050919050565b61106d81611058565b811461107857600080fd5b50565b60008151905061108a81611064565b92915050565b6000602082840312156110a6576110a56108ca565b5b60006110b48482850161107b565b91505092915050565b7f5472617820666565207061796d656e74206661696c65642120706c656173652060008201527f636865636b20696620796f757220686176652061206d696e696d756d2062616c60208201527f616e6365206f6620313054525820696e20796f75722077616c6c657400000000604082015250565b600061113f605c83610bc8565b915061114a826110bd565b606082019050919050565b6000602082019050818103600083015261116e81611132565b9050919050565b61117e81611058565b82525050565b60006020820190506111996000830184611175565b9291505056fea26469706673582212208940eb4f371717a7997cc50117d9bd451f8c1f26e2611743cb8f57c02048881364736f6c634300080d0033",
  "immutableReferences": {},
  "source": "// SPDX-License-Identifier: MIT\npragma solidity ^0.8.13;\n\nimport \"@openzeppelin/contracts/token/ERC20/ERC20.sol\";\n\ncontract Recorder {\n    transaction[] private transactions;\n    uint constant private fee=10000000000000000000;\n\tstruct transaction{\n        string date;\n        address key;\n        uint id;\n        string hash;\n    }\n\n    event success(bool flag);\n\n\tfunction RecordTransaction(address TokenAddress, string memory date, string memory hash, uint id, address key) public payable  {\n        uint balance = IERC20(TokenAddress).balanceOf(msg.sender);\n        require(balance>=10,\"Insufficient balance! your wallet should have a minimum balance eof 10 TRX to execute this transaction\");\n        bool TrxPaid =  IERC20(TokenAddress).transferFrom(msg.sender,address(this),fee);\n        require(TrxPaid==true,\"Trax fee payment failed! please check if your have a minimum balance of 10TRX in your wallet\");\n        transactions.push(transaction(date,key,id,hash));\n        emit success(true);\n\t}\n\n    function TransactionsByUser(address add) public view returns(uint) {\n        uint count=0;\n        for(uint i=0; i<transactions.length;i++){\n            if (keccak256(abi.encode(transactions[i].key))==keccak256(abi.encode(add))) {\n                count++;\n            }\n        }\n        return count;\n    }\n\n    function TransactionsByDate(string memory date) public view returns(uint) {\n        uint count=0;\n        for(uint i=0; i<transactions.length;i++){\n            if (keccak256(abi.encode(transactions[i].date))==keccak256(abi.encode(date))) {\n                count++;\n            }\n        }\n        return count;\n    }\n\n    function GetTransaction(address add, string memory date, uint id) public view returns(string memory) {\n        for(uint i=0; i<transactions.length;i++){\n            if (keccak256(abi.encode(transactions[i].id))==keccak256(abi.encode(id))&&keccak256(abi.encode(transactions[i].key))==keccak256(abi.encode(add))&&keccak256(abi.encode(transactions[i].date))==keccak256(abi.encode(date))) {\n                return transactions[i].hash;\n            }\n        }\n        return \"no transaction found!\";\n    }\n}",
  "sourcePath": "D:\\c0de\\trax-contract\\blockchain\\contracts\\Recorder.sol",
  "compiler": {
    "name": "solc",
    "version": "0.8.13+commit.abaa5c0e.Emscripten.clang"
  },
  "schemaVersion": "3.4.9",
  "updatedAt": "2022-10-12T10:46:17.223Z",
  "networkType": "ethereum",
  "devdoc": {
    "kind": "dev",
    "methods": {},
    "version": 1
  },
  "userdoc": {
    "kind": "user",
    "methods": {},
    "version": 1
  }
}