{
  "contractName": "Trax",
  "abi": [
    {
      "inputs": [],
      "stateMutability": "nonpayable",
      "type": "constructor"
    },
    {
      "anonymous": false,
      "inputs": [
        {
          "indexed": true,
          "internalType": "address",
          "name": "owner",
          "type": "address"
        },
        {
          "indexed": true,
          "internalType": "address",
          "name": "spender",
          "type": "address"
        },
        {
          "indexed": false,
          "internalType": "uint256",
          "name": "value",
          "type": "uint256"
        }
      ],
      "name": "Approval",
      "type": "event"
    },
    {
      "anonymous": false,
      "inputs": [
        {
          "indexed": true,
          "internalType": "address",
          "name": "previousOwner",
          "type": "address"
        },
        {
          "indexed": true,
          "internalType": "address",
          "name": "newOwner",
          "type": "address"
        }
      ],
      "name": "OwnershipTransferred",
      "type": "event"
    },
    {
      "anonymous": false,
      "inputs": [
        {
          "indexed": true,
          "internalType": "address",
          "name": "from",
          "type": "address"
        },
        {
          "indexed": true,
          "internalType": "address",
          "name": "to",
          "type": "address"
        },
        {
          "indexed": false,
          "internalType": "uint256",
          "name": "value",
          "type": "uint256"
        }
      ],
      "name": "Transfer",
      "type": "event"
    },
    {
      "inputs": [
        {
          "internalType": "address",
          "name": "owner",
          "type": "address"
        },
        {
          "internalType": "address",
          "name": "spender",
          "type": "address"
        }
      ],
      "name": "allowance",
      "outputs": [
        {
          "internalType": "uint256",
          "name": "",
          "type": "uint256"
        }
      ],
      "stateMutability": "view",
      "type": "function",
      "constant": true
    },
    {
      "inputs": [
        {
          "internalType": "address",
          "name": "spender",
          "type": "address"
        },
        {
          "internalType": "uint256",
          "name": "amount",
          "type": "uint256"
        }
      ],
      "name": "approve",
      "outputs": [
        {
          "internalType": "bool",
          "name": "",
          "type": "bool"
        }
      ],
      "stateMutability": "nonpayable",
      "type": "function"
    },
    {
      "inputs": [
        {
          "internalType": "address",
          "name": "account",
          "type": "address"
        }
      ],
      "name": "balanceOf",
      "outputs": [
        {
          "internalType": "uint256",
          "name": "",
          "type": "uint256"
        }
      ],
      "stateMutability": "view",
      "type": "function",
      "constant": true
    },
    {
      "inputs": [],
      "name": "decimals",
      "outputs": [
        {
          "internalType": "uint8",
          "name": "",
          "type": "uint8"
        }
      ],
      "stateMutability": "view",
      "type": "function",
      "constant": true
    },
    {
      "inputs": [
        {
          "internalType": "address",
          "name": "spender",
          "type": "address"
        },
        {
          "internalType": "uint256",
          "name": "subtractedValue",
          "type": "uint256"
        }
      ],
      "name": "decreaseAllowance",
      "outputs": [
        {
          "internalType": "bool",
          "name": "",
          "type": "bool"
        }
      ],
      "stateMutability": "nonpayable",
      "type": "function"
    },
    {
      "inputs": [
        {
          "internalType": "address",
          "name": "spender",
          "type": "address"
        },
        {
          "internalType": "uint256",
          "name": "addedValue",
          "type": "uint256"
        }
      ],
      "name": "increaseAllowance",
      "outputs": [
        {
          "internalType": "bool",
          "name": "",
          "type": "bool"
        }
      ],
      "stateMutability": "nonpayable",
      "type": "function"
    },
    {
      "inputs": [],
      "name": "name",
      "outputs": [
        {
          "internalType": "string",
          "name": "",
          "type": "string"
        }
      ],
      "stateMutability": "view",
      "type": "function",
      "constant": true
    },
    {
      "inputs": [],
      "name": "owner",
      "outputs": [
        {
          "internalType": "address",
          "name": "",
          "type": "address"
        }
      ],
      "stateMutability": "view",
      "type": "function",
      "constant": true
    },
    {
      "inputs": [],
      "name": "renounceOwnership",
      "outputs": [],
      "stateMutability": "nonpayable",
      "type": "function"
    },
    {
      "inputs": [],
      "name": "symbol",
      "outputs": [
        {
          "internalType": "string",
          "name": "",
          "type": "string"
        }
      ],
      "stateMutability": "view",
      "type": "function",
      "constant": true
    },
    {
      "inputs": [],
      "name": "totalSupply",
      "outputs": [
        {
          "internalType": "uint256",
          "name": "",
          "type": "uint256"
        }
      ],
      "stateMutability": "view",
      "type": "function",
      "constant": true
    },
    {
      "inputs": [
        {
          "internalType": "address",
          "name": "to",
          "type": "address"
        },
        {
          "internalType": "uint256",
          "name": "amount",
          "type": "uint256"
        }
      ],
      "name": "transfer",
      "outputs": [
        {
          "internalType": "bool",
          "name": "",
          "type": "bool"
        }
      ],
      "stateMutability": "nonpayable",
      "type": "function"
    },
    {
      "inputs": [
        {
          "internalType": "address",
          "name": "from",
          "type": "address"
        },
        {
          "internalType": "address",
          "name": "to",
          "type": "address"
        },
        {
          "internalType": "uint256",
          "name": "amount",
          "type": "uint256"
        }
      ],
      "name": "transferFrom",
      "outputs": [
        {
          "internalType": "bool",
          "name": "",
          "type": "bool"
        }
      ],
      "stateMutability": "nonpayable",
      "type": "function"
    },
    {
      "inputs": [
        {
          "internalType": "address",
          "name": "newOwner",
          "type": "address"
        }
      ],
      "name": "transferOwnership",
      "outputs": [],
      "stateMutability": "nonpayable",
      "type": "function"
    },
    {
      "inputs": [
        {
          "internalType": "address",
          "name": "to",
          "type": "address"
        },
        {
          "internalType": "uint256",
          "name": "amount",
          "type": "uint256"
        }
      ],
      "name": "mint",
      "outputs": [],
      "stateMutability": "nonpayable",
      "type": "function"
    },
    {
      "inputs": [
        {
          "internalType": "address",
          "name": "account",
          "type": "address"
        },
        {
          "internalType": "uint256",
          "name": "ammount",
          "type": "uint256"
        }
      ],
      "name": "burn",
      "outputs": [],
      "stateMutability": "nonpayable",
      "type": "function"
    },
    {
      "inputs": [
        {
          "internalType": "address",
          "name": "owner",
          "type": "address"
        },
        {
          "internalType": "address",
          "name": "spender",
          "type": "address"
        }
      ],
      "name": "GetAllowance",
      "outputs": [
        {
          "internalType": "uint256",
          "name": "",
          "type": "uint256"
        }
      ],
      "stateMutability": "view",
      "type": "function",
      "constant": true
    },
    {
      "inputs": [
        {
          "internalType": "address",
          "name": "add",
          "type": "address"
        }
      ],
      "name": "GetBalance",
      "outputs": [
        {
          "internalType": "uint256",
          "name": "",
          "type": "uint256"
        }
      ],
      "stateMutability": "view",
      "type": "function",
      "constant": true
    }
  ],
  "bytecode": "0x60806040523480156200001157600080fd5b506040518060400160405280600481526020017f54726178000000000000000000000000000000000000000000000000000000008152506040518060400160405280600381526020017f545258000000000000000000000000000000000000000000000000000000000081525081600390805190602001906200009692919062000344565b508060049080519060200190620000af92919062000344565b505050620000d2620000c6620000f460201b60201c565b620000fc60201b60201c565b620000ee33692a5a058fc295ed000000620001c260201b60201c565b6200059f565b600033905090565b6000600560009054906101000a900473ffffffffffffffffffffffffffffffffffffffff16905081600560006101000a81548173ffffffffffffffffffffffffffffffffffffffff021916908373ffffffffffffffffffffffffffffffffffffffff1602179055508173ffffffffffffffffffffffffffffffffffffffff168173ffffffffffffffffffffffffffffffffffffffff167f8be0079c531659141344cd1fd0a4f28419497f9722a3daafe3b4186f6b6457e060405160405180910390a35050565b600073ffffffffffffffffffffffffffffffffffffffff168273ffffffffffffffffffffffffffffffffffffffff160362000234576040517f08c379a00000000000000000000000000000000000000000000000000000000081526004016200022b9062000455565b60405180910390fd5b62000248600083836200033a60201b60201c565b80600260008282546200025c9190620004b0565b92505081905550806000808473ffffffffffffffffffffffffffffffffffffffff1673ffffffffffffffffffffffffffffffffffffffff1681526020019081526020016000206000828254620002b39190620004b0565b925050819055508173ffffffffffffffffffffffffffffffffffffffff16600073ffffffffffffffffffffffffffffffffffffffff167fddf252ad1be2c89b69c2b068fc378daa952ba7f163c4a11628f55a4df523b3ef836040516200031a91906200051e565b60405180910390a362000336600083836200033f60201b60201c565b5050565b505050565b505050565b82805462000352906200056a565b90600052602060002090601f016020900481019282620003765760008555620003c2565b82601f106200039157805160ff1916838001178555620003c2565b82800160010185558215620003c2579182015b82811115620003c1578251825591602001919060010190620003a4565b5b509050620003d19190620003d5565b5090565b5b80821115620003f0576000816000905550600101620003d6565b5090565b600082825260208201905092915050565b7f45524332303a206d696e7420746f20746865207a65726f206164647265737300600082015250565b60006200043d601f83620003f4565b91506200044a8262000405565b602082019050919050565b6000602082019050818103600083015262000470816200042e565b9050919050565b6000819050919050565b7f4e487b7100000000000000000000000000000000000000000000000000000000600052601160045260246000fd5b6000620004bd8262000477565b9150620004ca8362000477565b9250827fffffffffffffffffffffffffffffffffffffffffffffffffffffffffffffffff0382111562000502576200050162000481565b5b828201905092915050565b620005188162000477565b82525050565b60006020820190506200053560008301846200050d565b92915050565b7f4e487b7100000000000000000000000000000000000000000000000000000000600052602260045260246000fd5b600060028204905060018216806200058357607f821691505b6020821081036200059957620005986200053b565b5b50919050565b611caa80620005af6000396000f3fe608060405234801561001057600080fd5b50600436106101165760003560e01c8063715018a6116100a25780639dc29fac116100715780639dc29fac146102f7578063a457c2d714610313578063a9059cbb14610343578063dd62ed3e14610373578063f2fde38b146103a357610116565b8063715018a61461028157806373f9733d1461028b5780638da5cb5b146102bb57806395d89b41146102d957610116565b8063313ce567116100e9578063313ce567146101b757806339509351146101d557806340c10f191461020557806343e2e5041461022157806370a082311461025157610116565b806306fdde031461011b578063095ea7b31461013957806318160ddd1461016957806323b872dd14610187575b600080fd5b6101236103bf565b6040516101309190611219565b60405180910390f35b610153600480360381019061014e91906112d4565b610451565b604051610160919061132f565b60405180910390f35b610171610474565b60405161017e9190611359565b60405180910390f35b6101a1600480360381019061019c9190611374565b61047e565b6040516101ae919061132f565b60405180910390f35b6101bf6104ad565b6040516101cc91906113e3565b60405180910390f35b6101ef60048036038101906101ea91906112d4565b6104b6565b6040516101fc919061132f565b60405180910390f35b61021f600480360381019061021a91906112d4565b6104ed565b005b61023b600480360381019061023691906113fe565b610503565b6040516102489190611359565b60405180910390f35b61026b600480360381019061026691906113fe565b610528565b6040516102789190611359565b60405180910390f35b610289610570565b005b6102a560048036038101906102a0919061142b565b610584565b6040516102b29190611359565b60405180910390f35b6102c36105ab565b6040516102d0919061147a565b60405180910390f35b6102e16105d5565b6040516102ee9190611219565b60405180910390f35b610311600480360381019061030c91906112d4565b610667565b005b61032d600480360381019061032891906112d4565b61067d565b60405161033a919061132f565b60405180910390f35b61035d600480360381019061035891906112d4565b6106f4565b60405161036a919061132f565b60405180910390f35b61038d6004803603810190610388919061142b565b610717565b60405161039a9190611359565b60405180910390f35b6103bd60048036038101906103b891906113fe565b61079e565b005b6060600380546103ce906114c4565b80601f01602080910402602001604051908101604052809291908181526020018280546103fa906114c4565b80156104475780601f1061041c57610100808354040283529160200191610447565b820191906000526020600020905b81548152906001019060200180831161042a57829003601f168201915b5050505050905090565b60008061045c610821565b9050610469818585610829565b600191505092915050565b6000600254905090565b600080610489610821565b90506104968582856109f2565b6104a1858585610a7e565b60019150509392505050565b60006012905090565b6000806104c1610821565b90506104e28185856104d38589610717565b6104dd9190611524565b610829565b600191505092915050565b6104f5610cfd565b6104ff8282610d7b565b5050565b6000670de0b6b3a764000061051783610528565b61052191906115a9565b9050919050565b60008060008373ffffffffffffffffffffffffffffffffffffffff1673ffffffffffffffffffffffffffffffffffffffff168152602001908152602001600020549050919050565b610578610cfd565b6105826000610eda565b565b6000670de0b6b3a76400006105998484610717565b6105a391906115a9565b905092915050565b6000600560009054906101000a900473ffffffffffffffffffffffffffffffffffffffff16905090565b6060600480546105e4906114c4565b80601f0160208091040260200160405190810160405280929190818152602001828054610610906114c4565b801561065d5780601f106106325761010080835404028352916020019161065d565b820191906000526020600020905b81548152906001019060200180831161064057829003601f168201915b5050505050905090565b61066f610cfd565b6106798282610fa0565b5050565b600080610688610821565b905060006106968286610717565b9050838110156106db576040517f08c379a00000000000000000000000000000000000000000000000000000000081526004016106d29061164c565b60405180910390fd5b6106e88286868403610829565b60019250505092915050565b6000806106ff610821565b905061070c818585610a7e565b600191505092915050565b6000600160008473ffffffffffffffffffffffffffffffffffffffff1673ffffffffffffffffffffffffffffffffffffffff16815260200190815260200160002060008373ffffffffffffffffffffffffffffffffffffffff1673ffffffffffffffffffffffffffffffffffffffff16815260200190815260200160002054905092915050565b6107a6610cfd565b600073ffffffffffffffffffffffffffffffffffffffff168173ffffffffffffffffffffffffffffffffffffffff1603610815576040517f08c379a000000000000000000000000000000000000000000000000000000000815260040161080c906116de565b60405180910390fd5b61081e81610eda565b50565b600033905090565b600073ffffffffffffffffffffffffffffffffffffffff168373ffffffffffffffffffffffffffffffffffffffff1603610898576040517f08c379a000000000000000000000000000000000000000000000000000000000815260040161088f90611770565b60405180910390fd5b600073ffffffffffffffffffffffffffffffffffffffff168273ffffffffffffffffffffffffffffffffffffffff1603610907576040517f08c379a00000000000000000000000000000000000000000000000000000000081526004016108fe90611802565b60405180910390fd5b80600160008573ffffffffffffffffffffffffffffffffffffffff1673ffffffffffffffffffffffffffffffffffffffff16815260200190815260200160002060008473ffffffffffffffffffffffffffffffffffffffff1673ffffffffffffffffffffffffffffffffffffffff168152602001908152602001600020819055508173ffffffffffffffffffffffffffffffffffffffff168373ffffffffffffffffffffffffffffffffffffffff167f8c5be1e5ebec7d5bd14f71427d1e84f3dd0314c0f7b2291e5b200ac8c7c3b925836040516109e59190611359565b60405180910390a3505050565b60006109fe8484610717565b90507fffffffffffffffffffffffffffffffffffffffffffffffffffffffffffffffff8114610a785781811015610a6a576040517f08c379a0000000000000000000000000000000000000000000000000000000008152600401610a619061186e565b60405180910390fd5b610a778484848403610829565b5b50505050565b600073ffffffffffffffffffffffffffffffffffffffff168373ffffffffffffffffffffffffffffffffffffffff1603610aed576040517f08c379a0000000000000000000000000000000000000000000000000000000008152600401610ae490611900565b60405180910390fd5b600073ffffffffffffffffffffffffffffffffffffffff168273ffffffffffffffffffffffffffffffffffffffff1603610b5c576040517f08c379a0000000000000000000000000000000000000000000000000000000008152600401610b5390611992565b60405180910390fd5b610b67838383611176565b60008060008573ffffffffffffffffffffffffffffffffffffffff1673ffffffffffffffffffffffffffffffffffffffff16815260200190815260200160002054905081811015610bed576040517f08c379a0000000000000000000000000000000000000000000000000000000008152600401610be490611a24565b60405180910390fd5b8181036000808673ffffffffffffffffffffffffffffffffffffffff1673ffffffffffffffffffffffffffffffffffffffff16815260200190815260200160002081905550816000808573ffffffffffffffffffffffffffffffffffffffff1673ffffffffffffffffffffffffffffffffffffffff1681526020019081526020016000206000828254610c809190611524565b925050819055508273ffffffffffffffffffffffffffffffffffffffff168473ffffffffffffffffffffffffffffffffffffffff167fddf252ad1be2c89b69c2b068fc378daa952ba7f163c4a11628f55a4df523b3ef84604051610ce49190611359565b60405180910390a3610cf784848461117b565b50505050565b610d05610821565b73ffffffffffffffffffffffffffffffffffffffff16610d236105ab565b73ffffffffffffffffffffffffffffffffffffffff1614610d79576040517f08c379a0000000000000000000000000000000000000000000000000000000008152600401610d7090611a90565b60405180910390fd5b565b600073ffffffffffffffffffffffffffffffffffffffff168273ffffffffffffffffffffffffffffffffffffffff1603610dea576040517f08c379a0000000000000000000000000000000000000000000000000000000008152600401610de190611afc565b60405180910390fd5b610df660008383611176565b8060026000828254610e089190611524565b92505081905550806000808473ffffffffffffffffffffffffffffffffffffffff1673ffffffffffffffffffffffffffffffffffffffff1681526020019081526020016000206000828254610e5d9190611524565b925050819055508173ffffffffffffffffffffffffffffffffffffffff16600073ffffffffffffffffffffffffffffffffffffffff167fddf252ad1be2c89b69c2b068fc378daa952ba7f163c4a11628f55a4df523b3ef83604051610ec29190611359565b60405180910390a3610ed66000838361117b565b5050565b6000600560009054906101000a900473ffffffffffffffffffffffffffffffffffffffff16905081600560006101000a81548173ffffffffffffffffffffffffffffffffffffffff021916908373ffffffffffffffffffffffffffffffffffffffff1602179055508173ffffffffffffffffffffffffffffffffffffffff168173ffffffffffffffffffffffffffffffffffffffff167f8be0079c531659141344cd1fd0a4f28419497f9722a3daafe3b4186f6b6457e060405160405180910390a35050565b600073ffffffffffffffffffffffffffffffffffffffff168273ffffffffffffffffffffffffffffffffffffffff160361100f576040517f08c379a000000000000000000000000000000000000000000000000000000000815260040161100690611b8e565b60405180910390fd5b61101b82600083611176565b60008060008473ffffffffffffffffffffffffffffffffffffffff1673ffffffffffffffffffffffffffffffffffffffff168152602001908152602001600020549050818110156110a1576040517f08c379a000000000000000000000000000000000000000000000000000000000815260040161109890611c20565b60405180910390fd5b8181036000808573ffffffffffffffffffffffffffffffffffffffff1673ffffffffffffffffffffffffffffffffffffffff1681526020019081526020016000208190555081600260008282546110f89190611c40565b92505081905550600073ffffffffffffffffffffffffffffffffffffffff168373ffffffffffffffffffffffffffffffffffffffff167fddf252ad1be2c89b69c2b068fc378daa952ba7f163c4a11628f55a4df523b3ef8460405161115d9190611359565b60405180910390a36111718360008461117b565b505050565b505050565b505050565b600081519050919050565b600082825260208201905092915050565b60005b838110156111ba57808201518184015260208101905061119f565b838111156111c9576000848401525b50505050565b6000601f19601f8301169050919050565b60006111eb82611180565b6111f5818561118b565b935061120581856020860161119c565b61120e816111cf565b840191505092915050565b6000602082019050818103600083015261123381846111e0565b905092915050565b600080fd5b600073ffffffffffffffffffffffffffffffffffffffff82169050919050565b600061126b82611240565b9050919050565b61127b81611260565b811461128657600080fd5b50565b60008135905061129881611272565b92915050565b6000819050919050565b6112b18161129e565b81146112bc57600080fd5b50565b6000813590506112ce816112a8565b92915050565b600080604083850312156112eb576112ea61123b565b5b60006112f985828601611289565b925050602061130a858286016112bf565b9150509250929050565b60008115159050919050565b61132981611314565b82525050565b60006020820190506113446000830184611320565b92915050565b6113538161129e565b82525050565b600060208201905061136e600083018461134a565b92915050565b60008060006060848603121561138d5761138c61123b565b5b600061139b86828701611289565b93505060206113ac86828701611289565b92505060406113bd868287016112bf565b9150509250925092565b600060ff82169050919050565b6113dd816113c7565b82525050565b60006020820190506113f860008301846113d4565b92915050565b6000602082840312156114145761141361123b565b5b600061142284828501611289565b91505092915050565b600080604083850312156114425761144161123b565b5b600061145085828601611289565b925050602061146185828601611289565b9150509250929050565b61147481611260565b82525050565b600060208201905061148f600083018461146b565b92915050565b7f4e487b7100000000000000000000000000000000000000000000000000000000600052602260045260246000fd5b600060028204905060018216806114dc57607f821691505b6020821081036114ef576114ee611495565b5b50919050565b7f4e487b7100000000000000000000000000000000000000000000000000000000600052601160045260246000fd5b600061152f8261129e565b915061153a8361129e565b9250827fffffffffffffffffffffffffffffffffffffffffffffffffffffffffffffffff0382111561156f5761156e6114f5565b5b828201905092915050565b7f4e487b7100000000000000000000000000000000000000000000000000000000600052601260045260246000fd5b60006115b48261129e565b91506115bf8361129e565b9250826115cf576115ce61157a565b5b828204905092915050565b7f45524332303a2064656372656173656420616c6c6f77616e63652062656c6f7760008201527f207a65726f000000000000000000000000000000000000000000000000000000602082015250565b600061163660258361118b565b9150611641826115da565b604082019050919050565b6000602082019050818103600083015261166581611629565b9050919050565b7f4f776e61626c653a206e6577206f776e657220697320746865207a65726f206160008201527f6464726573730000000000000000000000000000000000000000000000000000602082015250565b60006116c860268361118b565b91506116d38261166c565b604082019050919050565b600060208201905081810360008301526116f7816116bb565b9050919050565b7f45524332303a20617070726f76652066726f6d20746865207a65726f2061646460008201527f7265737300000000000000000000000000000000000000000000000000000000602082015250565b600061175a60248361118b565b9150611765826116fe565b604082019050919050565b600060208201905081810360008301526117898161174d565b9050919050565b7f45524332303a20617070726f766520746f20746865207a65726f20616464726560008201527f7373000000000000000000000000000000000000000000000000000000000000602082015250565b60006117ec60228361118b565b91506117f782611790565b604082019050919050565b6000602082019050818103600083015261181b816117df565b9050919050565b7f45524332303a20696e73756666696369656e7420616c6c6f77616e6365000000600082015250565b6000611858601d8361118b565b915061186382611822565b602082019050919050565b600060208201905081810360008301526118878161184b565b9050919050565b7f45524332303a207472616e736665722066726f6d20746865207a65726f20616460008201527f6472657373000000000000000000000000000000000000000000000000000000602082015250565b60006118ea60258361118b565b91506118f58261188e565b604082019050919050565b60006020820190508181036000830152611919816118dd565b9050919050565b7f45524332303a207472616e7366657220746f20746865207a65726f206164647260008201527f6573730000000000000000000000000000000000000000000000000000000000602082015250565b600061197c60238361118b565b915061198782611920565b604082019050919050565b600060208201905081810360008301526119ab8161196f565b9050919050565b7f45524332303a207472616e7366657220616d6f756e742065786365656473206260008201527f616c616e63650000000000000000000000000000000000000000000000000000602082015250565b6000611a0e60268361118b565b9150611a19826119b2565b604082019050919050565b60006020820190508181036000830152611a3d81611a01565b9050919050565b7f4f776e61626c653a2063616c6c6572206973206e6f7420746865206f776e6572600082015250565b6000611a7a60208361118b565b9150611a8582611a44565b602082019050919050565b60006020820190508181036000830152611aa981611a6d565b9050919050565b7f45524332303a206d696e7420746f20746865207a65726f206164647265737300600082015250565b6000611ae6601f8361118b565b9150611af182611ab0565b602082019050919050565b60006020820190508181036000830152611b1581611ad9565b9050919050565b7f45524332303a206275726e2066726f6d20746865207a65726f2061646472657360008201527f7300000000000000000000000000000000000000000000000000000000000000602082015250565b6000611b7860218361118b565b9150611b8382611b1c565b604082019050919050565b60006020820190508181036000830152611ba781611b6b565b9050919050565b7f45524332303a206275726e20616d6f756e7420657863656564732062616c616e60008201527f6365000000000000000000000000000000000000000000000000000000000000602082015250565b6000611c0a60228361118b565b9150611c1582611bae565b604082019050919050565b60006020820190508181036000830152611c3981611bfd565b9050919050565b6000611c4b8261129e565b9150611c568361129e565b925082821015611c6957611c686114f5565b5b82820390509291505056fea2646970667358221220cf81bbf8d38efb2b9d38dce519e56fdc42af6e4e5df58e04b634204759a9f9c264736f6c634300080d0033",
  "immutableReferences": {},
  "source": "// SPDX-License-Identifier: MIT\r\npragma solidity ^0.8.13;\r\n\r\nimport \"@openzeppelin/contracts/token/ERC20/ERC20.sol\";\r\nimport \"@openzeppelin/contracts/access/Ownable.sol\";\r\n\r\ncontract Trax is ERC20, Ownable{\r\n    constructor() ERC20(\"Trax\",\"TRX\"){\r\n        _mint(msg.sender,200000*10**18);\r\n    }\r\n\r\n    function mint(address to,uint256 amount)public onlyOwner {\r\n        _mint(to,amount);\r\n    }\r\n\r\n    function burn(address account,uint ammount)public onlyOwner {\r\n        _burn(account,ammount);\r\n    }\r\n\r\n    function GetAllowance(address owner, address spender) public view returns(uint){\r\n        return allowance(owner, spender)/(10**18);\r\n    }\r\n\r\n    function GetBalance(address add) public view returns(uint) {\r\n        return balanceOf(add)/(10**18);\r\n    }\r\n}",
  "sourcePath": "D:\\c0de\\trax-contract\\blockchain\\contracts\\Trax.sol",
  "compiler": {
    "name": "solc",
    "version": "0.8.13+commit.abaa5c0e.Emscripten.clang"
  },
  "schemaVersion": "3.4.9",
  "updatedAt": "2022-10-12T10:46:41.773Z",
  "networkType": "ethereum",
  "devdoc": {
    "kind": "dev",
    "methods": {
      "allowance(address,address)": {
        "details": "See {IERC20-allowance}."
      },
      "approve(address,uint256)": {
        "details": "See {IERC20-approve}. NOTE: If `amount` is the maximum `uint256`, the allowance is not updated on `transferFrom`. This is semantically equivalent to an infinite approval. Requirements: - `spender` cannot be the zero address."
      },
      "balanceOf(address)": {
        "details": "See {IERC20-balanceOf}."
      },
      "decimals()": {
        "details": "Returns the number of decimals used to get its user representation. For example, if `decimals` equals `2`, a balance of `505` tokens should be displayed to a user as `5.05` (`505 / 10 ** 2`). Tokens usually opt for a value of 18, imitating the relationship between Ether and Wei. This is the value {ERC20} uses, unless this function is overridden; NOTE: This information is only used for _display_ purposes: it in no way affects any of the arithmetic of the contract, including {IERC20-balanceOf} and {IERC20-transfer}."
      },
      "decreaseAllowance(address,uint256)": {
        "details": "Atomically decreases the allowance granted to `spender` by the caller. This is an alternative to {approve} that can be used as a mitigation for problems described in {IERC20-approve}. Emits an {Approval} event indicating the updated allowance. Requirements: - `spender` cannot be the zero address. - `spender` must have allowance for the caller of at least `subtractedValue`."
      },
      "increaseAllowance(address,uint256)": {
        "details": "Atomically increases the allowance granted to `spender` by the caller. This is an alternative to {approve} that can be used as a mitigation for problems described in {IERC20-approve}. Emits an {Approval} event indicating the updated allowance. Requirements: - `spender` cannot be the zero address."
      },
      "name()": {
        "details": "Returns the name of the token."
      },
      "owner()": {
        "details": "Returns the address of the current owner."
      },
      "renounceOwnership()": {
        "details": "Leaves the contract without owner. It will not be possible to call `onlyOwner` functions anymore. Can only be called by the current owner. NOTE: Renouncing ownership will leave the contract without an owner, thereby removing any functionality that is only available to the owner."
      },
      "symbol()": {
        "details": "Returns the symbol of the token, usually a shorter version of the name."
      },
      "totalSupply()": {
        "details": "See {IERC20-totalSupply}."
      },
      "transfer(address,uint256)": {
        "details": "See {IERC20-transfer}. Requirements: - `to` cannot be the zero address. - the caller must have a balance of at least `amount`."
      },
      "transferFrom(address,address,uint256)": {
        "details": "See {IERC20-transferFrom}. Emits an {Approval} event indicating the updated allowance. This is not required by the EIP. See the note at the beginning of {ERC20}. NOTE: Does not update the allowance if the current allowance is the maximum `uint256`. Requirements: - `from` and `to` cannot be the zero address. - `from` must have a balance of at least `amount`. - the caller must have allowance for ``from``'s tokens of at least `amount`."
      },
      "transferOwnership(address)": {
        "details": "Transfers ownership of the contract to a new account (`newOwner`). Can only be called by the current owner."
      }
    },
    "version": 1
  },
  "userdoc": {
    "kind": "user",
    "methods": {},
    "version": 1
  }
}